:100000000C9454000C9473000C9473000C947300C3
:100010000C9473000C9473000C9473000C94730094
:100020000C9473000C9473000C9473000C94730084
:100030000C9473000C94EC000C9473000C947300FB
:100040000C9473000C9473000C9473000C94730064
:100050000C9473000C9473000C9473000C94730054
:100060000C9473000C9473000C9473000C94730044
:100070000C9473000C9473000C9473000C94730034
:100080000C9473000C9473000C947300AD01B401D4
:10009000E90107022B0241026702E902E902890233
:1000A0009A02B602C602E20211241FBECFEFD0E4CC
:1000B000DEBFCDBF11E0A0E0B1E0ECE5F6E000E08E
:1000C0000BBF02C007900D92A231B107D9F721E012
:1000D000A2E1B1E001C01D92AC31B207E1F70E948C
:1000E000F2020C942C030C940000CF93DF9300D009
:1000F0001F92CDB7DEB789837B836A8389818A307B
:1001000031F48A819B81BC018DE00E94750080ECF6
:1001100090E0FC018081882F90E080729927892BE4
:10012000B1F386EC90E02981FC01208380E090E02F
:100130000F900F900F90DF91CF910895CF93DF93A1
:10014000CDB7DEB781E890E02BE0FC01208388E8A2
:1001500090E02DE730E0FC01318320838FE690E0D2
:1001600022E0FC01208384E890E0FC0111821082EF
:1001700080910E0190910F01A0911001B091110199
:100180008093130190931401A0931501B09316016D
:100190008FE590E02FE530E0F90120812068FC0137
:1001A00020830000DF91CF910895CF93DF93CDB7E7
:1001B000DEB781E890E0FC0110820000DF91CF9172
:1001C0000895CF93DF93CDB7DEB781E0809312011E
:1001D0000000DF91CF9108951F920F9200905F0071
:1001E0000F92112400905B000F922F933F934F9337
:1001F0005F936F937F938F939F93AF93BF93EF938F
:10020000FF93CF93DF93CDB7DEB780911301909129
:100210001401A0911501B09116010197A109B1092E
:100220008093130190931401A0931501B0931601CC
:100230008091130190911401A0911501B0911601C4
:10024000892B8A2B8B2B91F40E94E10080910E0167
:1002500090910F01A0911001B091110180931301B1
:1002600090931401A0931501B09316010000DF9143
:10027000CF91FF91EF91BF91AF919F918F917F911E
:100280006F915F914F913F912F910F9000925B0082
:100290000F9000925F000F901F901895CF93DF93FF
:1002A00000D000D0CDB7DEB769837A838B839C837F
:1002B00089819A81AB81BC8180930E0190930F015B
:1002C000A0931001B093110180910E0190910F0144
:1002D000A0911001B091110180931301909314012A
:1002E000A0931501B093160100000F900F900F908E
:1002F0000F90DF91CF910895CF93DF93CDB7DEB705
:1003000080E290E0FC018081882F90E08170992745
:1003100021E0892B09F020E0822F8093170180E2F1
:1003200090E0FC018081809582708093180180911B
:100330001A0190911B01CC01A0E0B0E040E050E038
:1003400026E030E0841B950B2817390708F4C6C057
:100350008A5B9F4FFC010C94230381E090E0909313
:100360001B0180931A01BFC080911701882359F0A7
:1003700080911801882339F482E090E090931B016A
:1003800080931A0125C080911701882359F4809128
:100390001801882339F084E090E090931B0180934A
:1003A0001A0116C080911701882359F08091180115
:1003B000882339F086E090E090931B0180931A0126
:1003C00007C081E090E090931B0180931A018BC0DD
:1003D0008AC080911701282F30E09091180181E0A8
:1003E000992309F080E0882F90E082239323892BC2
:1003F00039F083E090E090931B0180931A0173C061
:1004000081E090E090931B0180931A016CC0809171
:100410001701882359F080911801882339F483E06B
:1004200090E090931B0180931A015DC09091170199
:10043000809118018923882339F086E090E0909319
:100440001B0180931A014FC081E090E090931B0143
:1004500080931A0148C080911701882359F4809134
:100460001801882339F085E090E090931B01809378
:100470001A0139C081E090E090931B0180931A012A
:1004800032C080911701882359F480911801882384
:1004900039F085E090E090931B0180931A0116C01B
:1004A00080911701882359F080911801882339F031
:1004B00086E090E090931B0180931A0107C081E0D1
:1004C00090E090931B0180931A010DC00CC081E055
:1004D00090E090931B0180931A0105C010921B01BC
:1004E00010921A01000080911A0190911B01CC0119
:1004F000A0E0B0E040E050E026E030E0841B950B47
:100500002817390708F463C0835B9F4FFC010C94E4
:10051000230385E290E0FC018081893008F05BC014
:1005200085E290E025E230E0F90120812F5FFC01B7
:10053000208351C0809119018A3030F480911901D3
:100540008F5F809319014AC085E290E0FC018081B1
:10055000893048F485E290E025E230E0F90120811D
:100560002F5FFC0120831092190138C085E290E0D2
:10057000FC018081882389F185E290E025E230E06A
:10058000F90120812150FC01208327C080911901AD
:100590008A3030F4809119018F5F809319011EC059
:1005A00085E290E0FC018081882349F085E290E0BB
:1005B00025E230E0F90120812150FC0120831092D6
:1005C00019010CC085E290E0FC01108207C0000018
:1005D00005C0000003C0000001C000000000DF9162
:1005E000CF910895CF93DF93CDB7DEB781E290E04E
:1005F000FC01108282E290E02FEFFC01208384E274
:1006000090E02FEFFC01208385E290E0FC01108256
:1006100010921B0110921A0185E290E027E0FC0184
:10062000208364E670E080E090E00E944E010E942A
:100630009E000E947C010000809112018823E1F35A
:1006400010921201F6CFEE0FFF1F0024001C0BBE0C
:0C0650000790F691E02D0994F894FFCF7C
:10065C000000000200000000750000000000010016
:02066C0000008C
:00000001FF
