:100000000C9446000C9465000C9465000C946500FB
:100010000C9465000C9465000C9465000C946500CC
:100020000C9465000C9465000C9465000C946500BC
:100030000C9465000C9465000C9465000C946500AC
:100040000C9465000C9465000C9465000C9465009C
:100050000C9465000C9465000C9465000C9465008C
:100060000C9465000C9465000C9465000C9465007C
:100070000C9465000C9465000C9465000C9465006C
:100080000C9465000C9465000C94650011241FBE4F
:10009000CFEFD0E4DEBFCDBF11E0A0E0B1E0ECE9EE
:1000A000F2E000E00BBF02C007900D92AE30B10746
:1000B000D9F721E0AEE0B1E001C01D92A231B20754
:1000C000E1F70E942F010C944C010C940000CF9397
:1000D000DF9300D01F92CDB7DEB789837B836A831D
:1000E00089818A3031F48A819B81BC018DE00E9434
:1000F000670080EC90E0FC018081882F90E08072A6
:100100009927892BB1F386EC90E02981FC012083AB
:1001100080E090E00F900F900F90DF91CF910895C5
:10012000CF93DF93CDB7DEB780E290E0FC01808112
:10013000882F90E08170992721E0892B09F020E039
:10014000822F80930E0180911001909111018230D5
:10015000910539F18330910528F4009749F0019712
:1001600071F03FC08330910519F1049799F139C0BE
:1001700081E090E0909311018093100137C080914D
:100180000E01882339F082E090E090931101809372
:1001900010012CC081E090E0909311018093100138
:1001A00025C083E090E090931101809310011EC060
:1001B00080910E01882339F083E090E09093110143
:1001C0008093100113C084E090E09093110180931C
:1001D00010010CC081E090E0909311018093100118
:1001E00005C01092110110921001000080911001C1
:1001F000909111018230910591F08330910528F49E
:10020000009749F00197E1F016C083309105D1F0D5
:100210000497D1F010C08AE280930F0116C080913C
:100220000F018A3221F485E180930F010EC08AE22A
:1002300080930F010AC0109211011092100105C0A5
:10024000000003C0000001C0000085E290E02091A2
:100250000F01FC0120830000DF91CF910895CF931F
:10026000DF93CDB7DEB781E290E0FC01108282E23D
:1002700090E02FEFFC01208384E290E02FEFFC015F
:10028000208385E290E0FC0110821092110110920F
:0C02900010010E949000FDCFF894FFCFF9
:0E029C000000000200000000670000000000EB
:00000001FF
