:100000000C9454000C9473000C9473000C947300C3
:100010000C9473000C9473000C9473000C94730094
:100020000C9473000C9473000C9473000C94730084
:100030000C9473000C9473000C9473000C94730074
:100040000C9473000C9473000C9473000C94730064
:100050000C9473000C9473000C9473000C94730054
:100060000C9473000C9473000C9473000C94730044
:100070000C9473000C9473000C9473000C94730034
:100080000C9473000C9473000C947300CF00D60092
:100090000B0129014D0163018901D101D101AA019F
:1000A000D101BA01D101CA0111241FBECFEFD0E4A2
:1000B000DEBFCDBF11E0A0E0B1E0EEE0F4E000E093
:1000C0000BBF02C007900D92AE30B107D9F721E007
:1000D000AEE0B1E001C01D92A231B207E1F70E948B
:1000E000DA010C9405020C940000CF93DF9300D04A
:1000F0001F92CDB7DEB789837B836A8389818A307B
:1001000031F48A819B81BC018DE00E94750080ECF6
:1001100090E0FC018081882F90E080729927892BE4
:10012000B1F386EC90E02981FC01208380E090E02F
:100130000F900F900F90DF91CF910895CF93DF93A1
:10014000CDB7DEB780E290E0FC018081882F90E09F
:100150008170992721E0892B09F020E0822F80937C
:100160000E0180E290E0FC01808180958270809396
:100170000F018091100190911101CC01A0E0B0E03D
:1001800040E050E026E030E0841B950B281739074B
:1001900008F4C6C08A5B9F4FFC010C94FC0181E00F
:1001A00090E09093110180931001BFC080910E01E7
:1001B000882359F080910F01882339F482E090E080
:1001C000909311018093100125C080910E01882326
:1001D00059F480910F01882339F084E090E09093E6
:1001E00011018093100116C080910E01882359F0EF
:1001F00080910F01882339F086E090E090931101FF
:100200008093100107C081E090E0909311018093EA
:1002100010018BC08AC080910E01282F30E0909190
:100220000F0181E0992309F080E0882F90E082237C
:100230009323892B39F083E090E090931101809310
:10024000100173C081E090E0909311018093100140
:100250006CC080910E01882359F080910F01882392
:1002600039F483E090E090931101809310015DC018
:1002700090910E0180910F018923882339F086E047
:1002800090E090931101809310014FC081E090E0C5
:10029000909311018093100148C080910E01882332
:1002A00059F480910F01882339F085E090E0909314
:1002B00011018093100139C081E090E09093110109
:1002C0008093100132C080910E01882359F48091EF
:1002D0000F01882339F085E090E09093110180931D
:1002E000100116C080910E01882359F080910F01F2
:1002F000882339F086E090E09093110180931001FB
:1003000007C081E090E090931101809310010DC02F
:100310000CC081E090E0909311018093100105C022
:100320001092110110921001000080911001909123
:100330001101CC01A0E0B0E040E050E026E030E068
:10034000841B950B2817390750F1835B9F4FFC01E5
:100350000C94FC0185E290E0FC018081893018F565
:1003600085E290E025E230E0F90120812F5FFC0179
:10037000208319C085E290E0FC0180818823A9F0E8
:1003800085E290E025E230E0F90120812150FC0176
:1003900020830BC085E290E0FC01108207C00000C2
:1003A00005C0000003C0000001C000000000DF9194
:1003B000CF910895CF93DF93CDB7DEB781E290E080
:1003C000FC01108282E290E02FEFFC01208384E2A6
:1003D00090E02FEFFC01208385E290E0FC01108289
:1003E000109211011092100185E290E027E0FC01CB
:1003F00020830E949E00FDCFEE0FFF1F0024001CF3
:0E0400000BBE0790F691E02D0994F894FFCF03
:0E040E00000000020000000075000000000069
:00000001FF
