:100000000C944E000C946D000C946D000C946D00DB
:100010000C946D000C946D000C946D000C946D00AC
:100020000C946D000C946D000C946D000C946D009C
:100030000C946D000C94E6010C946D000C946D0012
:100040000C946D000C946D000C946D000C946D007C
:100050000C946D000C946D000C946D000C946D006C
:100060000C946D000C946D000C946D000C946D005C
:100070000C946D000C946D000C946D000C946D004C
:100080000C946D000C946D000C946D0034043904D4
:100090006F048B049004950461047D0411241FBE39
:1000A000CFEFD0E4DEBFCDBF11E0A0E0B1E0E2E1F0
:1000B000FEE000E00BBF02C007900D92A635B1072D
:1000C000D9F721E0A6E5B1E001C01D92A737B2073C
:1000D000E1F70E949C050C9407070C940000CF9355
:1000E000DF93CDB7DEB781E00E9496000000DF917C
:1000F000CF910895CF93DF93CDB7DEB784E690E03C
:100100000E943A0188E30E94960086E00E949600D1
:100110008FE00E94960081E00E9496008AE090E0C5
:100120000E943A010000DF91CF910895CF93DF93B1
:100130001F92CDB7DEB789838BE290E02BE230E0EF
:10014000F90120812F7BFC01208382E290E029814C
:10015000FC0120838BE290E02BE230E0F90120816A
:100160002068FC01208300008BE290E02BE230E06D
:10017000F90120812F77FC01208382E090E00E942A
:100180003A0100000F90DF91CF910895CF93DF9354
:100190001F92CDB7DEB789838BE290E02BE230E08F
:1001A000F90120812064FC01208382E290E0298112
:1001B000FC0120838BE290E02BE230E0F90120810A
:1001C0002068FC01208300008BE290E02BE230E00D
:1001D000F90120812F77FC01208381E090E00E94CB
:1001E0003A0100000F90DF91CF910895CF93DF93F4
:1001F00000D000D0CDB7DEB78A837C836B830E94AA
:100200006F008A81898311C0898191E0980F998359
:100210000E9423018B819C819C012F5F3F4F3C8377
:100220002B83FC0180810E94C6008B819C81FC0194
:100230008081882349F700000F900F900F900F9056
:10024000DF91CF910895CF93DF931F92CDB7DEB7A3
:1002500089838981813128F4898181580E9496009F
:1002600004C0898181550E94960000000F90DF91A3
:10027000CF910895CF93DF9300D000D000D0CDB7B9
:10028000DEB79E838D831A82198213C01C821B8263
:1002900006C000008B819C8101969C838B838B819F
:1002A0009C8187309340ACF389819A8101969A832F
:1002B000898329813A818D819E812817390734F3FA
:1002C000000026960FB6F894DEBF0FBECDBFDF91BB
:1002D000CF910895CF93DF9300D000D0CDB7DEB794
:1002E00069837A838B839C8389819A81AB81BC816A
:1002F0008093000190930101A0930201B093030148
:100300008091000190910101A0910201B09103013F
:100310008093570190935801A0935901B0935A01CB
:1003200000000F900F900F900F90DF91CF910895E4
:10033000CF93DF93CDB7DEB781E890E02BE0FC01EF
:10034000208388E890E02DE730E0FC0131832083B2
:100350008FE690E022E0FC01208384E890E0FC013D
:10036000118210828091000190910101A0910201FF
:10037000B09103018093570190935801A0935901C4
:10038000B0935A018FE590E02FE530E0F90120812C
:100390002068FC0120830000DF91CF910895CF9366
:1003A000DF93CDB7DEB781E890E0FC01108200005A
:1003B000DF91CF910895CF93DF93CDB7DEB781E082
:1003C000809356010000DF91CF9108951F920F9204
:1003D00000905F000F92112400905B000F922F930A
:1003E0003F934F935F936F937F938F939F93AF93BD
:1003F000BF93EF93FF93CF93DF93CDB7DEB7809199
:10040000570190915801A0915901B0915A0101975B
:10041000A109B1098093570190935801A093590104
:10042000B0935A018091570190915801A0915901C0
:10043000B0915A01892B8A2B8B2B91F40E94DB01FE
:100440008091000190910101A0910201B0910301FE
:100450008093570190935801A0935901B0935A018A
:100460000000DF91CF91FF91EF91BF91AF919F91EC
:100470008F917F916F915F914F913F912F910F904D
:1004800000925B000F9000925F000F901F901895F4
:10049000CF93DF9300D01F92CDB7DEB789836A83F5
:1004A0004B838B81882371F08A81282F30E081E093
:1004B00090E002C0880F991F2A95E2F7982F898152
:1004C000892B0EC08A81282F30E081E090E002C0A5
:1004D000880F991F2A95E2F7982F90958981892393
:1004E0000F900F900F90DF91CF910895CF93DF93EE
:1004F00000D0CDB7DEB789836A838A81282F30E0A8
:1005000081E090E002C0880F991F2A95E2F7982FAA
:10051000898189230F900F90DF91CF9108950F93D8
:100520001F93CF93DF93CDB7DEB708E210E040E032
:1005300064E08FEF0E944802F8018083000086E2A9
:1005400090E0FC018081809560E00E947602882323
:1005500011F081E3D3C086E290E0FC0180818095B8
:1005600061E00E947602882311F084E3C7C086E22E
:1005700090E0FC018081809562E00E9476028823F1
:1005800011F087E3BBC086E290E0FC01808180959A
:1005900063E00E947602882311F08AE2AFC008E28D
:1005A00010E040E065E08FEF0E944802F801808390
:1005B000000086E290E0FC018081809560E00E946E
:1005C0007602882311F082E399C086E290E0FC0174
:1005D0008081809561E00E947602882311F085E396
:1005E0008DC086E290E0FC018081809562E00E94EF
:1005F0007602882311F088E381C086E290E0FC0156
:100600008081809563E00E947602882311F080E368
:1006100075C008E210E040E066E08FEF0E944802FB
:10062000F8018083000086E290E0FC0180818095E3
:1006300060E00E947602882311F083E35FC086E2C7
:1006400090E0FC018081809561E00E947602882321
:1006500011F086E353C086E290E0FC018081809532
:1006600062E00E947602882311F089E347C086E2A7
:1006700090E0FC018081809563E00E9476028823EF
:1006800011F083E23BC008E210E040E067E08FEF4A
:100690000E944802F8018083000086E290E0FC019D
:1006A0008081809560E00E947602882311F081E4C9
:1006B00025C086E290E0FC018081809561E00E9487
:1006C0007602882311F082E419C086E290E0FC01F2
:1006D0008081809562E00E947602882311F083E495
:1006E0000DC086E290E0FC018081809563E00E946D
:1006F0007602882311F084E401C080E0DF91CF917D
:100700001F910F910895CF93DF93CDB7DEB72C974C
:100710000FB6F894DEBF0FBECDBF6D837E838F838F
:10072000988729873A874B875C878D819E81AF8127
:10073000B88529853A854B855C85BC01CD010E9431
:10074000DC06DC01CB0189839A83AB83BC8389817E
:100750009A81AB81BC81892B8A2B8B2B29F48985CB
:100760009A85AB85BC8511C089859A85AB85BC858A
:100770008D839E83AF83B88789819A81AB81BC8149
:1007800089879A87AB87BC87D0CFBC01CD012C96D7
:100790000FB6F894DEBF0FBECDBFDF91CF910895A5
:1007A000CF93DF9300D01F92CDB7DEB789837B83D1
:1007B0006A8389818A3031F48A819B81BC018DE012
:1007C0000E94D00380EC90E0FC018081882F90E0B3
:1007D00080729927892BB1F386EC90E02981FC0186
:1007E000208380E090E00F900F900F90DF91CF91E9
:1007F0000895CF93DF9300D0CDB7DEB79A83898376
:1008000083E290E0FC018081882F90E0817099273D
:1008100021E0892B09F020E0822F8093760183E28A
:1008200090E0FC018081809582708093730183E267
:1008300090E0FC01808180958470809375018981AE
:100840009A81092E000CAA0BBB0B40E050E027E078
:1008500030E0841B950B2817390708F478C08A5BB1
:100860009F4FFC010C94FE0682E090E09A838983FE
:1008700071C080917601882369F08091730188238B
:1008800049F480917501882329F486E090E09A83E9
:10089000898360C080917301882329F083E090E010
:1008A0009A83898357C080917501882329F084E059
:1008B00090E09A8389834EC081E090E09A83898397
:1008C00049C080917601882329F086E090E09A83E0
:1008D000898340C082E090E09A8389833BC0809105
:1008E0007601882329F087E090E09A83898332C0DB
:1008F00082E090E09A8389832DC0809176018823DD
:1009000029F087E090E09A83898324C081E090E019
:100910009A8389831FC085E090E09A8389831AC0F7
:1009200085E090E09A83898315C0809173018823C4
:1009300021F480917501882329F085E090E09A8365
:10094000898308C081E090E09A83898303C01A827A
:100950001982000089819A8182309105D9F0833013
:1009600091052CF4009761F0019781F01FC084304D
:100970009105B9F08430910584F00597B1F016C067
:100980001092720182E08093710110C081E0809327
:1009900072010CC01092720109C082E08093710153
:1009A00005C082E18093710101C0000089819A81B4
:1009B0000F900F90DF91CF910895CF93DF9300D0E8
:1009C00000D000D0CDB7DEB79E838D8383E290E068
:1009D000FC018081882F90E08170992721E0892B8C
:1009E00009F020E0822F809376018D819E818130F5
:1009F000910551F08230910509F1892B59F581E07B
:100A000090E09E838D8329C080917101282F30E072
:100A100080917401882F90E0820F931F8E5E9E4F0D
:100A2000FC018081833229F482E090E09E838D83F3
:100A300014C081E090E09E838D830FC08091760189
:100A4000882319F01E821D8208C082E090E09E83F8
:100A50008D8303C01E821D8200008D819E818130A6
:100A6000910541F08230910509F43EC0892B09F4CB
:100A700057C057C01A8219821EC089810E94230163
:100A800080917401282F30E089819A81820F931F11
:100A90008F719078992324F40197806E9F6F01964F
:100AA0008E5E9E4FFC0180810E94C60089819A81E2
:100AB00001969A83898389819A818097F4F2809143
:100AC0007201882361F080917401813230F4809149
:100AD00074018F5F8093740102C010927401809141
:100AE00071010E9423011DC081E090E09C838B83F3
:100AF00010C08B810E9423018B819C818D5C9E4F55
:100B0000FC0180810E94C6008B819C8101969C83A0
:100B10008B838B819C81819764F31092740101C057
:100B200000008D819E8126960FB6F894DEBF0FBE21
:100B3000CDBFDF91CF9108950F931F93CF93DF9394
:100B4000CDB7DEB729970FB6F894DEBF0FBECDBF85
:100B500081E290E02FEFFC01208382E290E0FC0133
:100B6000108284E290E0FC01108285E290E02FEF99
:100B7000FC01208387E290E02FEFFC01208388E2D4
:100B800090E0FC0110828AE290E02FEFFC012083CC
:100B90008BE290E0FC0110820E947A008BE591E0EC
:100BA0009F838E8386E691E09987888782E090E034
:100BB0009C838B838FEF8D838D8180935B018AE093
:100BC00090E0A0E0B0E080935C0190935D01A09381
:100BD0005E01B0935F0180915C0190915D01A091F5
:100BE0005E01B0915F018093600190936101A093D9
:100BF0006201B093630189EF93E090936501809364
:100C000064018D818093660189E190E0A0E0B0E00D
:100C10008093670190936801A0936901B0936A0182
:100C20008091670190916801A0916901B0916A017A
:100C300080936B0190936C01A0936D01B0936E0152
:100C40008DED94E09093700180936F016AE070E005
:100C500080E090E00E946A010E9498011A82198245
:100C60009BC089819A81880F991F9E012F5F3F4FFA
:100C7000820F931F0596FC0180819181FC012581E3
:100C800036814781508589819A81880F991FBE01DD
:100C90006F5F7F4F860F971F0596FC0180819181C2
:100CA000FC0181819281A381B481281739074A0709
:100CB0005B0709F045C089819A81880F991F9E01C1
:100CC0002F5F3F4F820F931F0596FC01008111811A
:100CD00089819A81880F991F9E012F5F3F4F820F54
:100CE000931F0596FC0180819181FC01218532854D
:100CF00089819A81880F991FAE014F5F5F4F840FE2
:100D0000951F0596FC0180819181FC018081082E50
:100D1000000C990BF9010995F801808389819A816A
:100D2000880F991F9E012F5F3F4F820F931F0596DB
:100D3000FC0180819181FC01158216821782108648
:100D400089819A81880F991F9E012F5F3F4F820FE3
:100D5000931F0596FC012081318189819A81880F3A
:100D6000991FAE014F5F5F4F840F951F0596FC01E1
:100D700080819181FC0185819681A781B085019652
:100D8000A11DB11DF90185839683A783B087898151
:100D90009A8101969A83898329813A818B819C81EA
:100DA0002817390708F45DCF000080915601882389
:100DB000E1F31092560152CFA1E21A2EAA1BBB1BDF
:100DC000FD010DC0AA1FBB1FEE1FFF1FA217B30717
:100DD000E407F50720F0A21BB30BE40BF50B661F2D
:100DE000771F881F991F1A9469F7609570958095F1
:100DF00090959B01AC01BD01CF010895EE0FFF1F3F
:100E00000024001C0BBE0790F691E02D0994F89485
:020E1000FFCF12
:100E1200010000000000000200000000D0030000FA
:100E220000002020202020202020202320202020FD
:100E320020202020202020202020202020202023AD
:100E42002020002020202047616D65204F766572AA
:100E5200212020202020202020202020202020208F
:060E62002020202000000A
:00000001FF
