:100000000C9446000C9465000C9465000C946500FB
:100010000C9465000C9465000C9465000C946500CC
:100020000C9465000C9465000C9465000C946500BC
:100030000C9465000C9465000C9465000C946500AC
:100040000C9465000C9465000C9465000C9465009C
:100050000C9465000C9465000C9465000C9465008C
:100060000C9465000C9465000C9465000C9465007C
:100070000C9465000C9465000C9465000C9465006C
:100080000C9465000C9465000C94650011241FBE4F
:10009000CFEFD0E4DEBFCDBF11E0A0E0B1E0E2E6FB
:1000A000F3E000E00BBF02C007900D92A031B10752
:1000B000D9F721E0A0E1B1E001C01D92A231B20761
:1000C000E1F70E94A1000C94AF010C940000CF93C3
:1000D000DF9300D01F92CDB7DEB789837B836A831D
:1000E00089818A3031F48A819B81BC018DE00E9434
:1000F000670080EC90E0FC018081882F90E08072A6
:100100009927892BB1F386EC90E02981FC012083AB
:1001100080E090E00F900F900F90DF91CF910895C5
:10012000CF93DF93CDB7DEB78AE790E02AE730E0E0
:10013000F9012081206EFC0120830000DF91CF9126
:100140000895CF93DF93CDB7DEB781E290E0FC0155
:10015000108282E290E02FEFFC01208384E290E0A5
:100160002FEFFC01208385E290E0FC01108281E208
:1001700090E02FEFFC01208382E290E0FC011082EE
:100180008AE290E02FEFFC0120838BE290E0FC01FB
:1001900010820E94900088E790E0FC0180819181AC
:1001A000909311018093100180910E0190910F01A5
:1001B0009C013695279536952795369527958091FC
:1001C0001001909111012817390730F085E290E075
:1001D00021E0FC012083DFCF80910E0190910F017F
:1001E0009C01369527953695279580911001909121
:1001F00011012817390730F085E290E023E0FC0177
:100200002083C9CF20910E0130910F01C901880FC1
:10021000991F820F931F9C01369527953695279538
:100220003695279580911001909111012817390773
:1002300030F085E290E027E0FC012083ACCF809194
:100240000E0190910F019C01369527958091100128
:10025000909111012817390730F085E290E02FE0E6
:10026000FC01208398CF20910E0130910F01C9012C
:10027000880F991F880F991F820F931F9C01369535
:100280002795369527953695279580911001909161
:1002900011012817390730F085E290E02FE1FC01C9
:1002A000208379CF80910E0190910F01880F991FC3
:1002B0009C01ABEABAEA0E94A0019C013695279501
:1002C00080911001909111012817390730F085E2D3
:1002D00090E02FE3FC0120835ECF20910E0130914E
:1002E0000F01C901880F991F880F991F880F991F47
:1002F000821B930B9C01369527953695279536954D
:10030000279580911001909111012817390730F03D
:1003100085E290E02FE7FC0120833DCF2091100182
:100320003091110180910E0190910F018217930776
:1003300008F431CF85E290E02FEFFC0120832BCF32
:10034000A29FB001B39FC001A39F700D811D112416
:10035000911DB29F700D811D1124911D0895F89477
:02036000FFCFCD
:100362000000000200000000670000000000C8005A
:00000001FF
