:100000000C945C000C947B000C947B000C947B00A3
:100010000C947B000C947B000C947B000C947B0074
:100020000C947B000C947B000C947B000C947B0064
:100030000C947B000C94EF010C947B000C947B00DF
:100040000C947B000C947B000C947B000C947B0044
:100050000C947B000C947B000C947B000C947B0034
:100060000C947B000C947B000C947B000C947B0024
:100070000C947B000C947B000C947B000C947B0014
:100080000C947B000C947B000C947B000B031203FC
:100090004603AE037A0358036A03240336038C0332
:1000A0009E034F04DB03FF034704230405041A04E3
:1000B000E103F60329043E0411241FBECFEFD0E470
:1000C000DEBFCDBF11E0A0E0B1E0E2E4F9E000E086
:1000D0000BBF02C007900D92AE32B107D9F721E0F5
:1000E000AEE2B1E001C01D92A633B207E1F70E9473
:1000F00054040C949F040C940000CF93DF93CDB76D
:10010000DEB781E00E94A4000000DF91CF91089546
:10011000CF93DF93CDB7DEB784E690E00E9448012D
:1001200088E30E94A40086E00E94A4008FE00E9461
:10013000A40081E00E94A4008AE090E00E944801AF
:100140000000DF91CF910895CF93DF931F92CDB739
:10015000DEB789838BE290E02BE230E0F901208169
:100160002F7BFC01208388E290E02981FC01208321
:100170008BE290E02BE230E0F90120812068FC0165
:10018000208300008BE290E02BE230E0F901208137
:100190002F77FC01208382E090E00E94480100005C
:1001A0000F90DF91CF910895CF93DF931F92CDB73A
:1001B000DEB789838BE290E02BE230E0F901208109
:1001C0002064FC01208388E290E02981FC012083E7
:1001D0008BE290E02BE230E0F90120812068FC0105
:1001E000208300008BE290E02BE230E0F9012081D7
:1001F0002F77FC01208381E090E00E9448010000FD
:100200000F90DF91CF910895CF93DF9300D000D06E
:10021000CDB7DEB78A837C836B830E947D008A81A1
:10022000898311C0898191E0980F99830E943101DF
:100230008B819C819C012F5F3F4F3C832B83FC0172
:1002400080810E94D4008B819C81FC018081882365
:1002500049F700000F900F900F900F90DF91CF9112
:100260000895CF93DF931F92CDB7DEB7898389813D
:10027000813128F4898181580E94A40004C08981B9
:1002800081550E94A40000000F90DF91CF91089546
:10029000CF93DF9300D000D000D0CDB7DEB79E83E0
:1002A0008D831A82198213C01C821B8206C0000033
:1002B0008B819C8101969C838B838B819C81873071
:1002C0009340ACF389819A8101969A83898329812D
:1002D0003A818D819E812817390734F300002696D4
:1002E0000FB6F894DEBF0FBECDBFDF91CF9108955A
:1002F000CF93DF9300D01F92CDB7DEB789837B8386
:100300006A8389818A3031F48A819B81BC018DE0C6
:100310000E94780180EC90E0FC018081882F90E0C1
:1003200080729927892BB1F386EC90E02981FC013A
:10033000208380E090E00F900F900F90DF91CF919D
:100340000895CF93DF93CDB7DEB781E890E02BE03F
:10035000FC01208388E890E02DE730E0FC01318348
:1003600020838FE690E022E0FC01208384E890E087
:10037000FC011182108280910E0190910F01A091D9
:100380001001B091110180932F0190933001A0933F
:100390003101B09332018FE590E02FE530E0F901B3
:1003A00020812068FC0120830000DF91CF91089517
:1003B000CF93DF93CDB7DEB781E890E0FC011082E8
:1003C0000000DF91CF910895CF93DF93CDB7DEB7D3
:1003D00081E080932E010000DF91CF9108951F925C
:1003E0000F9200905F000F92112400905B000F921B
:1003F0002F933F934F935F936F937F938F939F932D
:10040000AF93BF93EF93FF93CF93DF93CDB7DEB757
:1004100080912F0190913001A0913101B091320172
:100420000197A109B10980932F0190933001A09306
:100430003101B093320180912F0190913001A09150
:100440003101B0913201892B8A2B8B2B91F40E94C0
:10045000E40180910E0190910F01A0911001B091E3
:10046000110180932F0190933001A0933101B0933B
:1004700032010000DF91CF91FF91EF91BF91AF91D9
:100480009F918F917F916F915F914F913F912F91AC
:100490000F9000925B000F9000925F000F901F90F2
:1004A0001895CF93DF9300D000D0CDB7DEB7698326
:1004B0007A838B839C8389819A81AB81BC81809371
:1004C0000E0190930F01A0931001B0931101809140
:1004D0000E0190910F01A0911001B0911101809334
:1004E0002F0190933001A0933101B09332010000AD
:1004F0000F900F900F900F90DF91CF910895CF93B1
:10050000DF93CDB7DEB780911201882331F464E127
:1005100071E081E00E94040159C080911201813094
:1005200031F466E171E081E00E9404014FC08091E6
:100530001201823031F468E171E081E00E9404012F
:1005400045C080911201833031F46AE171E081E0AD
:100550000E9404013BC080911201843031F46CE1AF
:1005600071E081E00E94040131C080911201853068
:1005700031F46EE171E081E00E94040127C08091B6
:100580001201863031F460E271E081E00E940401E2
:100590001DC080911201873031F462E271E081E088
:1005A0000E94040113C080911201883031F464E28A
:1005B00071E081E00E94040109C08091120189303C
:1005C00029F466E271E081E00E94040180E290E09B
:1005D000FC018081882F90E08170992721E0892B90
:1005E00009F020E0822F80933301809134019091B3
:1005F0003501CC01A0E0B0E040E050E02AE030E07E
:10060000841B950B2817390708F4BAC08A5B9F4FE3
:10061000FC010C94960481E090E090933501809366
:100620003401B3C080913301882339F087E090E032
:100630009093350180933401A8C082E090E09093BC
:10064000350180933401A1C080913301882339F0B2
:1006500087E090E0909335018093340196C088E064
:1006600090E090933501809334018FC080913301E5
:10067000882329F0109235011092340186C088E059
:1006800090E090933501809334017FC080913301D5
:10069000882339F085E090E0909335018093340110
:1006A00074C084E090E090933501809334016DC074
:1006B00080913301813039F485E090E090933501E9
:1006C0008093340162C086E090E09093350180937E
:1006D00034015BC080913301882329F010923501E9
:1006E0001092340152C086E090E0909335018093DF
:1006F00034014BC080913301882339F089E090E0C8
:10070000909335018093340140C083E090E0909352
:1007100035018093340139C080913301882339F049
:1007200089E090E090933501809334012EC08AE0F7
:1007300090E0909335018093340127C0809133017C
:10074000882329F010923501109234011EC08AE0EE
:1007500090E0909335018093340117C0809133016C
:10076000882339F085E090E090933501809334013F
:100770000CC081E090E0909335018093340105C076
:100780001092350110923401000080913401909153
:100790003501CC01A0E0B0E040E050E02AE030E0DC
:1007A000841B950B2817390708F477C08F5A9F4F81
:1007B000FC010C94960485E290E021E0FC0120838A
:1007C0006FC080911201882359F080911301882312
:1007D00039F080911201815080931201109213011F
:1007E00085E290E021E0FC0120835AC081E0809303
:1007F000130185E290E021E0FC01208351C085E2F5
:1008000090E022E0FC0120834BC0809112018930EE
:1008100058F480911301882339F0809112018F5F81
:10082000809312011092130185E290E022E0FC0116
:10083000208336C081E08093130185E290E022E0BE
:10084000FC0120832DC085E290E024E0FC012083A0
:1008500027C080911201882359F0809113018823C9
:1008600039F080911201815080931201109213018E
:1008700085E290E024E0FC01208312C081E08093B7
:10088000130185E290E024E0FC01208309C085E2A9
:1008900090E022E0FC01208303C0000001C00000C2
:1008A0000000DF91CF910895CF93DF93CDB7DEB7EE
:1008B00081E290E0FC01108282E290E02FEFFC01E7
:1008C000208384E290E02FEFFC01208385E290E01A
:1008D000FC01108287E290E02FEFFC01208388E288
:1008E00090E02FEFFC0120838AE290E02FEFFC01E3
:1008F00020838BE290E02FEFFC01208310923501E2
:10090000109234016CE271E080E090E00E945102AC
:100910000E94A1010E9488000E947F020000809135
:100920002E018823E1F310922E01F6CFEE0FFF1F68
:100930000024001C0BBE0790F691E02D0994F8945A
:02094000FFCFE7
:100942000000000200000000780100000000010029
:100952000000050130003100320033003400350060
:0E0962003600370038005669636F74727900F2
:00000001FF
