:100000000C9446000C9465000C9465000C946500FB
:100010000C9465000C9465000C9465000C946500CC
:100020000C9465000C9465000C9465000C946500BC
:100030000C9465000C94D9010C9465000C94650037
:100040000C9465000C9465000C9465000C9465009C
:100050000C9465000C9465000C9465000C9465008C
:100060000C9465000C9465000C9465000C9465007C
:100070000C9465000C9465000C9465000C9465006C
:100080000C9465000C9465000C94650011241FBE4F
:10009000CFEFD0E4DEBFCDBF11E0A0E0B1E0E6E4F9
:1000A000F8E000E00BBF02C007900D92A231B1074B
:1000B000D9F721E0A2E1B1E001C01D92AC32B20754
:1000C000E1F70E94A3030C9421040C940000CF9349
:1000D000DF93CDB7DEB781E00E948E000000DF9194
:1000E000CF910895CF93DF93CDB7DEB784E690E04C
:1000F0000E94320188E30E948E0086E00E948E00FA
:100100008FE00E948E0081E00E948E008AE090E0E5
:100110000E9432010000DF91CF910895CF93DF93C9
:100120001F92CDB7DEB789838BE290E02BE230E0FF
:10013000F90120812F7BFC01208388E290E0298156
:10014000FC0120838BE290E02BE230E0F90120817A
:100150002068FC01208300008BE290E02BE230E07D
:10016000F90120812F77FC01208382E090E00E943A
:10017000320100000F90DF91CF910895CF93DF936C
:100180001F92CDB7DEB789838BE290E02BE230E09F
:10019000F90120812064FC01208388E290E029811C
:1001A000FC0120838BE290E02BE230E0F90120811A
:1001B0002068FC01208300008BE290E02BE230E01D
:1001C000F90120812F77FC01208381E090E00E94DB
:1001D000320100000F90DF91CF910895CF93DF930C
:1001E00000D000D0CDB7DEB78A837C836B830E94BA
:1001F00067008A81898311C0898191E0980F998372
:100200000E941B018B819C819C012F5F3F4F3C838F
:100210002B83FC0180810E94BE008B819C81FC01AC
:100220008081882349F700000F900F900F900F9066
:10023000DF91CF910895CF93DF931F92CDB7DEB7B3
:1002400089838981813128F4898181580E948E00B7
:1002500004C0898181550E948E0000000F90DF91BB
:10026000CF910895CF93DF9300D000D000D0CDB7C9
:10027000DEB79E838D831A82198213C01C821B8273
:1002800006C000008B819C8101969C838B838B81AF
:100290009C8187309340ACF389819A8101969A833F
:1002A000898329813A818D819E812817390734F30A
:1002B000000026960FB6F894DEBF0FBECDBFDF91CB
:1002C000CF910895CF93DF9300D01F92CDB7DEB7C3
:1002D00089837B836A8389818A3031F48A819B8117
:1002E000BC018DE00E94620180EC90E0FC01808105
:1002F000882F90E080729927892BB1F386EC90E0EB
:100300002981FC01208380E090E00F900F900F90F6
:10031000DF91CF910895CF93DF93CDB7DEB781E81A
:1003200090E02BE0FC01208388E890E02DE730E0AE
:10033000FC01318320838FE690E022E0FC012083E2
:1003400084E890E0FC011182108280910E0190916E
:100350000F01A0911001B0911101809313019093AE
:100360001401A0931501B09316018FE590E02FE5DD
:1003700030E0F90120812068FC0120830000DF913A
:10038000CF910895CF93DF93CDB7DEB781E890E0AA
:10039000FC0110820000DF91CF910895CF93DF938D
:1003A000CDB7DEB781E0809312010000DF91CF91DD
:1003B00008951F920F9200905F000F9211240090F9
:1003C0005B000F922F933F934F935F936F937F93B5
:1003D0008F939F93AF93BF93EF93FF93CF93DF934D
:1003E000CDB7DEB78091130190911401A091150152
:1003F000B09116010197A109B1098093130190935F
:100400001401A0931501B0931601809113019091EE
:100410001401A0911501B0911601892B8A2B8B2B09
:1004200091F40E94CE0180910E0190910F01A09154
:100430001001B09111018093130190931401A093C6
:100440001501B09316010000DF91CF91FF91EF915C
:10045000BF91AF919F918F917F916F915F914F91DC
:100460003F912F910F9000925B000F9000925F00E0
:100470000F901F901895CF93DF9300D000D0CDB789
:10048000DEB769837A838B839C8389819A81AB8170
:10049000BC8180930E0190930F01A0931001B09343
:1004A000110180910E0190910F01A0911001B09166
:1004B00011018093130190931401A0931501B0933F
:1004C000160100000F900F900F900F90DF91CF91C9
:1004D0000895CF93DF93CDB7DEB780912801909137
:1004E00029018130910581F08130910530F0823011
:1004F000910589F00397B1F01CC081E090E09093E2
:100500002901809328011AC082E090E0909329018C
:100510008093280113C083E090E090932901809399
:1005200028010CC081E090E090932901809328017C
:1005300005C0109229011092280100008091280125
:10054000909129018130910549F08130910590F019
:100550008230910539F0039749F00DC081E0809316
:10056000170109C082E08093170105C084E08093E1
:10057000170101C000000000DF91CF910895CF93D3
:10058000DF93CDB7DEB780912A0190912B018130A6
:10059000910569F08130910518F0029779F015C046
:1005A00081E090E090932B0180932A0113C082E0B8
:1005B00090E090932B0180932A010CC081E090E0A1
:1005C00090932B0180932A0105C010922B01109269
:1005D0002A01000080912A0190912B018130910520
:1005E00031F08130910550F0029729F008C088E081
:1005F0008093180104C01092180101C0000000008F
:10060000DF91CF910895CF93DF93CDB7DEB780E22E
:1006100090E0FC0180818095847080931A01809124
:100620002401909125018130910569F08130910577
:1006300018F00297D1F02BC081E090E09093250153
:100640008093240129C080911A01882339F082E027
:1006500090E090932501809324011EC081E090E0FA
:10066000909325018093240117C080911A0188235B
:1006700039F082E090E090932501809324010CC032
:1006800081E090E0909325018093240105C01092B1
:1006900025011092240100008091240190912501F0
:1006A0008130910531F081309105E0F0029721F021
:1006B0001AC01092190117C080911B01833020F4D9
:1006C00080E18093190108C080911B01833020F0E4
:1006D0001092190110921B0180911B018F5F809372
:1006E0001B0101C000000000DF91CF910895CF935E
:1006F000DF93CDB7DEB78091260190912701892B3A
:1007000029F4109227011092260105C010922701AA
:100710001092260100008091260190912701892BDB
:1007200009F00DC085E290E0309117012091180189
:10073000322B20911901232BFC01208300000000A3
:10074000DF91CF910895CF93DF93CDB7DEB781E2EC
:1007500090E0FC01108282E290E02FEFFC01208308
:1007600084E290E02FEFFC01208385E290E0FC0121
:10077000108261E070E080E090E00E943B020E9405
:100780008B0180911C0190911D01A0911E01B091DF
:100790001F018C329140A105B10550F00E94690201
:1007A00010921C0110921D0110921E0110921F0147
:1007B0008091200190912101A0912201B09123010B
:1007C000883E9340A105B10550F00E94BF021092EF
:1007D00020011092210110922201109223010E9407
:1007E00003030E9477030000809112018823E1F344
:1007F0001092120180911C0190911D01A0911E0187
:10080000B0911F010196A11DB11D80931C01909311
:100810001D01A0931E01B0931F01809120019091B2
:100820002101A0912201B09123010196A11DB11DCA
:100830008093200190932101A0932201B093230182
:06084000A0CFF894FFCFE9
:10084600000000020000000062010000000001003C
:020856000000A0
:00000001FF
