:100000000C9436010C9455010C9455010C94550137
:100010000C9455010C9455010C9455010C94550108
:100020000C9455010C9455010C9455010C945501F8
:100030000C9455010C9431070C9455010C94550106
:100040000C9455010C9455010C9455010C945501D8
:100050000C9455010C9455010C9455010C945501C8
:100060000C9455010C9455010C9455010C945501B8
:100070000C9455010C9455010C9455010C945501A8
:100080000C9455010C9455010C945501000000008E
:100090000000005F00000007000700147F147F14B9
:1000A000242A7F2A122313086462364955225000FD
:1000B00005030000001C2241000041221C0014081E
:1000C0003E081408083E08080050300000080808E0
:1000D0000808006060000020100804023E514945F5
:1000E0003E00427F400042615149462141454B312B
:1000F0001814127F1027454545393C4A49493001BB
:10010000710905033649494936064949291E003611
:100110003600000056360000081422410014141462
:100120001414004122140802015109063249794190
:100130003E7E1111117E7F494949363E414141229F
:100140007F4141221C7F494949417F090909013EFC
:100150004149497A7F0808087F00417F41002040DB
:10016000413F017F081422417F404040407F020C04
:10017000027F7F0408107F3E4141413E7F0909090B
:10018000063E4151215E7F091929464649494931B8
:1001900001017F01013F4040403F1F2040201F3FA1
:1001A0004038403F63140814630708700807615122
:1001B000494543007F4141000204081020004141AD
:1001C0007F0004020102044040404040000102045C
:1001D0000020545454787F484444383844444420E0
:1001E000384444487F3854545418087E0901020C9E
:1001F0005252523E7F0804047800447D4000204063
:10020000443D007F1028440000417F40007C0418DA
:1002100004787C0804047838444444387C1414146A
:1002200008081414187C7C0804040848545454200A
:10023000043F4440203C4040207C1C2040201C3C8B
:100240004030403C44281028440C5050503C4464FA
:10025000544C44000836410000007F000000413645
:1002600008001008081008000000000011241FBE3C
:10027000CFEFD0E4DEBFCDBF12E0A0E0B1E0E8E612
:10028000F9E100E00BBF02C007900D92AE3CB10750
:10029000D9F724E0AEECB2E001C01D92A23EB20755
:1002A000E1F70E94BC090C94B20C0C9400001F935F
:1002B000CF93DF9300D0CDB7DEB789836A8385E221
:1002C00090E025E230E0F90120812D7FFC012083C0
:1002D0008A81882351F085E290E025E230E0F9013F
:1002E00020812860FC01208309C085E290E025E29E
:1002F00030E0F9012081277FFC01208310E03CC021
:100300008981882F90E0212F30E047E050E0BA014A
:10031000621B730B9B0102C0959587952A95E2F7A6
:1003200081709927892B51F085E290E025E230E039
:10033000F90120812061FC01208309C085E290E061
:1003400025E230E0F90120812F7EFC01208385E247
:1003500090E025E230E0F90120812062FC01208359
:1003600085E290E025E230E0F90120812F7DFC015B
:100370002083812F11E0180F183010F285E290E0F1
:1003800025E230E0F90120812260FC012083000099
:100390000F900F90DF91CF911F910895CF93DF932E
:1003A0001F92CDB7DEB7898360E089810E94570133
:1003B00000000F90DF91CF910895CF93DF931F92AC
:1003C000CDB7DEB7898361E089810E9457010000C3
:1003D0000F90DF91CF9108950F931F93CF93DF93E9
:1003E000CDB7DEB76C970FB6F894DEBF0FBECDBFAA
:1003F00084E290E024E230E0F90120812260FC01F7
:10040000208384E290E024E230E0F901208124603E
:10041000FC01208384E290E024E230E0F9012081B5
:100420002860FC01208384E290E024E230E0F901BE
:1004300020812061FC01208384E290E024E230E00E
:10044000F90120812062FC01208385E290E025E211
:1004500030E0F90120812460FC01208385E290E0F6
:1004600025E230E0F90120812260FC01208380E058
:1004700090E0A0E2B1E489839A83AB83BC8320E05F
:1004800030E04AE753E469817A818B819C810E9444
:10049000820BDC01CB018B8B9C8BAD8BBE8B20E068
:1004A00030E040E85FE36B897C898D899E890E94FA
:1004B000FC0A88232CF481E090E0988F8F8B3FC05A
:1004C00020E03FEF4FE757E46B897C898D899E8957
:1004D0000E947D0B18164CF520E030E040E251E41C
:1004E00069817A818B819C810E94820BDC01CB0126
:1004F000BC01CD010E94010BDC01CB01988F8F8BD9
:100500000FC089E190E09A8F898F898D9A8D01972C
:10051000F1F79A8F898F8F89988D0197988F8F8B9C
:100520008F89988D892B69F714C06B897C898D8997
:100530009E890E94010BDC01CB01988F8F8B8F89E4
:10054000988D9C8F8B8F8B8D9C8D0197F1F79C8F55
:100550008B8F85E290E025E230E0F90120812B7F4E
:10056000FC01208380E090E0ACE8B2E48D839E83C0
:10057000AF83B88720E030E04AE753E46D817E81A5
:100580008F8198850E94820BDC01CB0189879A8735
:10059000AB87BC8720E030E040E85FE369857A857F
:1005A0008B859C850E94FC0A88232CF481E090E0D6
:1005B0009E878D873FC020E03FEF4FE757E4698576
:1005C0007A858B859C850E947D0B18164CF520E062
:1005D00030E040E251E46D817E818F8198850E94F8
:1005E000820BDC01CB01BC01CD010E94010BDC01BF
:1005F000CB019E878D870FC089E190E0988B8F8714
:100600008F8598890197F1F7988B8F878D859E85C7
:1006100001979E878D878D859E85892B69F714C0EC
:1006200069857A858B859C850E94010BDC01CB0155
:100630009E878D878D859E859A8B898B89899A89DE
:100640000197F1F79A8B898B85E290E025E230E003
:10065000F90120812460FC01208385E290E025E2FD
:1006600030E0F90120812D7FFC01208381E20E948E
:10067000CE0183E10E94CE0186E00E94CE0182EC91
:100680000E94CE0180E20E94CE0189E00E94CE014C
:1006900080E80E94CE0180E40E94CE0100E010E0DC
:1006A00005C080E00E94DD010F5F1F4F083FF1E0B1
:1006B0001F07B8F388E00E94CE018CE00E94CE01B3
:1006C00000006C960FB6F894DEBF0FBECDBFDF9171
:1006D000CF911F910F9108950F931F93CF93DF93A5
:1006E000CDB7DEB780E80E94CE0180E40E94CE0143
:1006F0001092C6041092C70400E010E007C0C801C1
:1007000082539D4FFC0110820F5F1F4F083FF1E0A5
:100710001F07A8F30000DF91CF911F910F9108955B
:10072000CF93DF931F92CDB7DEB78983898188236A
:1007300011F080E201C084E20E94CE0100000F901F
:10074000DF91CF910895CF93DF9300D000D01F9217
:10075000CDB7DEB78B836C834D838C818695869570
:100760008695882F90E044E5489F9001499F300D81
:1007700011248B81882F90E0820F931F82539D4F0D
:100780009A8389838D818823C9F089819A81FC01AC
:100790008081482F8C81882F90E09C01277033271F
:1007A00081E090E002C0880F991F2A95E2F7842B20
:1007B000282F89819A81FC01208319C089819A811F
:1007C000FC018081482F8C81882F90E09C0127704C
:1007D000332781E090E002C0880F991F2A95E2F745
:1007E00080958423282F89819A81FC012083000031
:1007F0000F900F900F900F900F90DF91CF91089571
:100800000F931F93CF93DF9300D000D01F92CDB7EB
:10081000DEB78C836D8310E066C000E04FC08C8132
:10082000082E000C990B9C01205231099D81812FCB
:10083000692F0E94CE0A482F50E0C901880F991FE6
:10084000880F991F820F931F840F951F84579F4F06
:100850009A83898389819A81FC0184918B838B811E
:10086000282F30E09D81802F692F0E94CE0A882F8B
:1008700090E0A90102C0559547958A95E2F7CA0113
:1008800081709927892B61F08091C704982F900F70
:100890008091C604810F41E0692F0E94A3030BC021
:1008A0008091C704982F900F8091C604810F40E07B
:1008B000692F0E94A303802F01E0080F402F50E012
:1008C0008D81282F30E0C901880F991F880F991F4B
:1008D000880F991F821B930B481759070CF49FCF61
:1008E000812F11E0180F412F50E08D81282F30E02B
:1008F000C901880F991F880F991F820F931F4817EE
:1009000059070CF48ACF2091C6049D81892F880F46
:10091000880F890F820F8F5F8093C6048091C60471
:10092000843570F01092C6042091C7049D81892FF0
:10093000880F880F880F891B820F8F5F8093C704F1
:100940008091C704803320F01092C6041092C7042F
:1009500000000F900F900F900F900F90DF91CF91AC
:100960001F910F910895CF93DF9300D01F92CDB7C1
:10097000DEB79A8389836B830CC089819A819C013D
:100980002F5F3F4F3A832983FC0180816B810E9456
:10099000000489819A81FC018081882371F700001D
:1009A0000F900F900F90DF91CF910895CF93DF9329
:1009B00000D0CDB7DEB789836A8389818093C6046E
:1009C0008A818093C70400000F900F90DF91CF9130
:1009D00008950F931F93CF93DF93CDB7DEB780E8D1
:1009E0000E94CE0180E40E94CE0100E010E009C028
:1009F000C80182539D4FFC0180810E94DD010F5F81
:100A00001F4F083FF1E01F0798F30000DF91CF91DF
:100A10001F910F910895CF93DF93CDB7DEB7609705
:100A20000FB6F894DEBF0FBECDBF9E878D876F8750
:100A3000488B8D859E85FC018081882F90E098876A
:100A40008F838D859E850196FC018081882F90E0A3
:100A50009A87898789859A8568E070E00E94A30556
:100A60009C878B878F81988501979A8389835CC047
:100A70001E821D824CC087E090E09C838B833DC02A
:100A800049815A818B859C85489F9001499F300DF3
:100A9000589F300D11248D819E81820F931F0296E5
:100AA0002D853E85820F931FFC018081882F90E069
:100AB0000B8002C0959587950A94E2F7817099277B
:100AC000892BB1F09F818889980F8981292F281B54
:100AD0008D81982F990F990F990F8F85980F8B8182
:100AE000F92FF81B8F2F895F41E0622F0E94A3032B
:100AF0008B819C8101979C838B838B819C81992323
:100B00000CF0BECF8D819E8101969E838D832D81B9
:100B10003E818B859C85281739070CF4ACCF8981E1
:100B20009A8101979A83898389819A8199230CF00C
:100B30009FCF000060960FB6F894DEBF0FBECDBF0A
:100B4000DF91CF910895CF93DF93CDB7DEB728978C
:100B50000FB6F894DEBF0FBECDBF9E838D8378871E
:100B60006F838D819E819A8389831C821B820FC033
:100B700029813A818F819885A901481B590BCA01A7
:100B80009A8389838B819C8101969C838B83898145
:100B90009A811816190664F38B819C8128960FB6EA
:100BA000F894DEBF0FBECDBFDF91CF910895CF93F4
:100BB000DF9300D0CDB7DEB79A8389838981482F30
:100BC00060E080E091E00E940B0500000F900F9024
:100BD000DF91CF910895CF93DF93CDB7DEB746E194
:100BE00060E08DE491E00E940B050000DF91CF9161
:100BF0000895CF93DF93CDB7DEB746E160E08AE991
:100C000091E00E940B050000DF91CF910895CF93F2
:100C1000DF93CDB7DEB740E260E087EE91E00E945F
:100C20000B050000DF91CF910895CF93DF93CDB7EF
:100C3000DEB740E260E089E292E00E940B0500002E
:100C4000DF91CF910895CF93DF9300D0CDB7DEB77A
:100C50009A838983898140E2682F8BE692E00E9423
:100C60000B0500000F900F90DF91CF910895CF9367
:100C7000DF9300D0CDB7DEB79A838983898142E1C3
:100C8000682F8CE792E00E940B0500000F900F90F8
:100C9000DF91CF910895CF93DF9300D0CDB7DEB72A
:100CA0001A8219820AC0898141E060E30E94A3038D
:100CB00089819A8101969A83898389819A81843571
:100CC00091058CF300000F900F90DF91CF91089564
:100CD000CF93DF93CDB7DEB72C970FB6F894DEBF76
:100CE0000FBECDBF6D837E838F83988729873A8718
:100CF0004B875C878D819E81AF81B88529853A8538
:100D00004B855C85BC01CD010E94DA0ADC01CB0178
:100D100089839A83AB83BC8389819A81AB81BC81AF
:100D2000892B8A2B8B2B29F489859A85AB85BC85E9
:100D300011C089859A85AB85BC858D839E83AF83E1
:100D4000B88789819A81AB81BC8189879A87AB8773
:100D5000BC87D0CFBC01CD012C960FB6F894DEBF76
:100D60000FBECDBFDF91CF910895CF93DF9300D019
:100D700000D0CDB7DEB769837A838B839C8389816A
:100D80009A81AB81BC8180939C0290939D02A09339
:100D90009E02B0939F0280919C0290919D02A0912F
:100DA0009E02B0919F028093C9049093CA04A093BD
:100DB000CB04B093CC0400000F900F900F900F90D5
:100DC000DF91CF910895CF93DF93CDB7DEB781E860
:100DD00090E02BE0FC01208388E890E02DE730E0F4
:100DE000FC01318320838FE690E022E0FC01208328
:100DF00084E890E0FC011182108280919C02909125
:100E00009D02A0919E02B0919F028093C90490938D
:100E1000CA04A093CB04B093CC048FE590E02FE5F7
:100E200030E0F90120812068FC0120830000DF917F
:100E3000CF910895CF93DF93CDB7DEB781E890E0EF
:100E4000FC0110820000DF91CF910895CF93DF93D2
:100E5000CDB7DEB781E08093C8040000DF91CF9169
:100E600008951F920F9200905F000F92112400903E
:100E70005B000F922F933F934F935F936F937F93FA
:100E80008F939F93AF93BF93EF93FF93CF93DF9392
:100E9000CDB7DEB78091C9049091CA04A091CB046C
:100EA000B091CC040197A109B1098093C904909332
:100EB000CA04A093CB04B093CC048091C904909150
:100EC000CA04A091CB04B091CC04892B8A2B8B2B24
:100ED00091F40E94260780919C0290919D02A0911E
:100EE0009E02B0919F028093C9049093CA04A0937C
:100EF000CB04B093CC040000DF91CF91FF91EF9130
:100F0000BF91AF919F918F917F916F915F914F9121
:100F10003F912F910F9000925B000F9000925F0025
:100F20000F901F901895CF93DF9300D01F92CDB7ED
:100F3000DEB789837B836A8389818A3031F48A8131
:100F40009B81BC018DE00E94930780EC90E0FC0146
:100F50008081882F90E080729927892BB1F386ECED
:100F600090E02981FC01208380E090E00F900F90B9
:100F70000F90DF91CF910895CF93DF9300D0CDB73D
:100F8000DEB79A83898389819A818130910569F0DE
:100F900082309105E9F1892B09F054C01092D004F8
:100FA00081E090E09A83898351C088E790E0FC015A
:100FB000808191819093DD048093DC048091DC0436
:100FC0009091DD04892B79F08091DC049091DD040F
:100FD000883C910540F48091AF02882321F081E0A4
:100FE0008093CF0402C01092CF048091DC049091D2
:100FF000DD048132934048F18091AF02882329F1CA
:101000008091CE04813009F181E08093CD041DC030
:1010100088E790E0FC01808191819093DD048093CA
:10102000DC048091DC049091DD048132934028F04F
:1010300081E090E09A83898309C082E090E09A83FE
:10104000898304C01A82198201C0000089819A81B3
:101050008130910541F08230910509F412C1892B4C
:1010600009F433C133C18091CD04882349F08091C4
:10107000AF02882329F08091AF0285508093AF02A0
:101080008091CD04882349F08091AF02823029F409
:101090008091AF0282508093AF028091AF0288238B
:1010A00089F48091B00281508093B0028091B002A7
:1010B000882341F485E08093B0021092CD0481E052
:1010C0008093CE048091CE04882349F08091AF02B2
:1010D000843128F48091AF028B5F8093AF028091BE
:1010E000CE04882359F08091AF02843139F4809185
:1010F000AF028E5F8093AF021092CE048091B10256
:10110000181634F48091B10285508093B1021BC04F
:101110008091B1028823B9F40E94620C81709078AA
:10112000992324F401978E6F9F6F01968093D004CA
:101130008091D004813021F481E48093B10203C016
:1011400080E58093B1020E946C038091D0048130CD
:1011500041F48091B102082E000C990B0E943706D1
:1011600007C08091B102082E000C990B0E94230643
:101170008091AE02882389F08091CD04882369F4A0
:101180008091CE04882349F48091CF04882329F4E8
:101190000E94EB051092AE0215C08091AE0288232A
:1011A00089F48091CD04882369F48091CE0488234A
:1011B00049F48091CF04882329F40E94F90581E045
:1011C0008093AE028091AE02882389F08091CD0495
:1011D000882369F48091CE04882349F48091CF0458
:1011E000882329F00E9407061092AE0215C0809154
:1011F000AE02882389F48091CD04882369F480911C
:10120000CE04882349F48091CF04882329F00E94DA
:10121000150681E08093AE028091CD04882321F4ED
:101220008091CE04882331F08091AF02882F90E026
:101230000E94D7058091D004813071F48091B10271
:10124000883154F48091CF04882331F40E946C03D8
:1012500082E090E09A8389838091D004813071F09C
:101260008091B102883154F48091AF02883030F01F
:101270000E946C0382E090E09A8389830E94E904D3
:1012800025C086E18093AF021092CF041092CD0466
:1012900081E08093AE0280E58093B1021092D00489
:1012A00060E080E00E94D60462E086EB92E00E945B
:1012B000B3046EE180E00E94D60461E080EC92E02D
:1012C0000E94B3040E94E90401C0000089819A8150
:1012D0000F900F90DF91CF910895CF93DF9300D0BF
:1012E00000D0CDB7DEB79C838B838B819C81009728
:1012F00019F0019749F005C081E090E09C838B8351
:1013000004C01C821B8201C000008B819C8100975D
:10131000C9F0019709F017C08AE490E09A838983A5
:101320000BC00E946C0389819A810E9423068981E7
:101330009A8102979A83898389819A81181619065E
:1013400084F301C0000000000F900F900F900F90E9
:10135000DF91CF910895CF93DF93CDB7DEB78AE7C2
:1013600090E02AE730E0F9012081206EFC01208323
:101370000000DF91CF9108950F931F93CF93DF93D8
:10138000CDB7DEB727970FB6F894DEBF0FBECDBF3F
:1013900080E090E00E94BB0ADC01CB010E94660C59
:1013A0000E94EC010E946C030E94AB0981ED94E065
:1013B0009F838E8381E090E09C838B838FEF8D836E
:1013C0008D818093D1048AE090E0A0E0B0E080932A
:1013D000D2049093D304A093D404B093D504809105
:1013E000D2049091D304A091D404B091D5048093F9
:1013F000D6049093D704A093D804B093D9048CEB6F
:1014000097E09093DB048093DA046AE070E080E078
:1014100090E00E94B5060E94E3061A8219829BC0E2
:1014200089819A81880F991F9E012F5F3F4F820FFC
:10143000931F0596FC0180819181FC0125813681F5
:101440004781508589819A81880F991FBE016F5FFE
:101450007F4F860F971F0596FC0180819181FC01CB
:1014600081819281A381B481281739074A075B07DC
:1014700009F045C089819A81880F991F9E012F5FCD
:101480003F4F820F931F0596FC01008111818981D6
:101490009A81880F991F9E012F5F3F4F820F931FE4
:1014A0000596FC0180819181FC012185328589812D
:1014B0009A81880F991FAE014F5F5F4F840F951F70
:1014C0000596FC0180819181FC018081082E000C31
:1014D000990BF9010995F801808389819A81880F18
:1014E000991F9E012F5F3F4F820F931F0596FC01AE
:1014F00080819181FC011582168217821086898174
:101500009A81880F991F9E012F5F3F4F820F931F73
:101510000596FC012081318189819A81880F991F6C
:10152000AE014F5F5F4F840F951F0596FC018081D0
:101530009181FC0185819681A781B0850196A11DCD
:10154000B11DF90185839683A783B08789819A812C
:1015500001969A83898329813A818B819C812817FE
:10156000390708F45DCF00008091C8048823E1F3B7
:101570001092C80452CFFC010FB6F8946091DE04BB
:101580007091DF048091E0049091E1040FBE3097E8
:1015900021F060837183828393830895991B79E09E
:1015A00004C0991F961708F0961B881F7A95C9F7F3
:1015B00080950895A1E21A2EAA1BBB1BFD010DC048
:1015C000AA1FBB1FEE1FFF1FA217B307E407F507F3
:1015D00020F0A21BB30BE40BF50B661F771F881FCF
:1015E000991F1A9469F760957095809590959B0165
:1015F000AC01BD01CF0108950E94300B08F481E0D9
:1016000008950E945C0B88F09F5798F0B92F992796
:10161000B751B0F0E1F0660F771F881F991F1AF0DD
:10162000BA95C9F714C0B13091F00E94760BB1E0C1
:1016300008950C94760B672F782F8827B85F39F0C0
:10164000B93FCCF3869577956795B395D9F73EF476
:1016500090958095709561957F4F8F4F9F4F08951E
:10166000990F0008550FAA0BE0E8FEEF16161706B3
:10167000E807F907C0F012161306E407F50798F01B
:10168000621B730B840B950B39F40A2661F0232B34
:10169000242B252B21F408950A2609F4A140A695B0
:1016A0008FEF811D811D089557FD9058440F551FE0
:1016B00059F05F3F71F04795880F97FB991F61F0D4
:1016C0009F3F79F087950895121613061406551F4B
:1016D000F2CF4695F1DF08C0161617061806991FB7
:1016E000F1CF86957105610508940895E894BB27AC
:1016F00066277727CB0197F908950E94300B08F4ED
:101700008FEF08950E94950B0C94060C0E94F80B25
:1017100038F00E94FF0B20F0952311F00C94EF0B92
:101720000C94F50B11240C94770B0E94540B70F35E
:10173000959FC1F3950F50E0551F629FF001729F76
:10174000BB27F00DB11D639FAA27F00DB11DAA1F85
:10175000649F6627B00DA11D661F829F2227B00DD2
:10176000A11D621F739FB00DA11D621F839FA00D5D
:10177000611D221F749F3327A00D611D231F849FAD
:10178000600D211D822F762F6A2F11249F57504004
:101790009AF0F1F088234AF0EE0FFF1FBB1F661F7F
:1017A000771F881F91505040A9F79E3F510580F048
:1017B0000C94EF0B0C94770B5F3FE4F3983ED4F35B
:1017C000869577956795B795F795E7959F5FC1F7EC
:1017D000FE2B880F911D9695879597F9089597F997
:1017E0009F6780E870E060E008959FEF80EC0895C7
:1017F00000240A94161617061806090608950024F0
:101800000A9412161306140605060895092E039469
:10181000000C11F4882352F0BB0F40F4BF2B11F4DD
:1018200060FF04C06F5F7F4F8F4F9F4F08958F926F
:101830009F92AF92BF92CF92DF92EF92FF92CF939F
:10184000DF93EC01688179818A819B816115710543
:101850008105910521F464E279ED8BE597E02DE1B6
:1018600033EF41E050E00E94710C49015A019B01A5
:10187000AC01A7EAB1E40E94900C6B017C01ACEED4
:10188000B4EFA50194010E949E0CDC01CB018C0DEC
:101890009D1DAE1DBF1DB7FF03C00197A109B04834
:1018A00088839983AA83BB839F77DF91CF91FF9031
:1018B000EF90DF90CF90BF90AF909F908F90089562
:1018C0000C94170C82EB92E00C94170CA0E0B0E0A3
:1018D0008093B2029093B302A093B402B093B50286
:1018E0000895052E97FB1EF400940E94880C57FD66
:1018F00007D00E94DA0A07FC03D04EF40C94880C3F
:1019000050954095309521953F4F4F4F5F4F08952B
:1019100090958095709561957F4F8F4F9F4F08955B
:101920000E94A30CA59F900DB49F900DA49F800DC5
:10193000911D11240895B7FF0C94900C0E94900CF7
:10194000821B930B0895A29FB001B39FC001A39F78
:10195000700D811D1124911DB29F700D811D1124E8
:08196000911D0895F894FFCFDA
:101968001918038E00030C00030C00038C0003FC01
:101978000007FE000FFF001FFF003FFF807FFF8072
:10198800FFFF80F9FFA0F0FFE0E07F80603F80303C
:101998001FFC000FF8000FC0000FFF000FFF000F23
:1019A800FF000EFF000FFF0003FE000000191800E3
:1019B8000E00000C00038C00030C0003FC0007FE63
:1019C800000FFF001FFF003FFF807FFF80FFFF80A9
:1019D800F9FFA0F0FFE0E07F80603F80301FFC004F
:1019E8000FF8000FC0000FFF000FFF000FFF000EE1
:1019F800FF000FFF0003FE0000001918038000031A
:101A08000000030E00038C0003FC0007FE000FFF1C
:101A1800001FFF003FFF807FFF80FFFF80F9FFA0CE
:101A2800F0FFE0E07F80603F80301FFC000FF8008F
:101A38000FC0000FFF000FFF000FFF000EFF000F89
:101A4800FF0003FE00000010200000000000180046
:101A5800000010000000D80000009C3000009E200C
:101A68000000FFF00001FFF3FC03FFFFC007FFFFCA
:101A7800FF0FFFFFFF1FFFFFFF3FFFFEFF387FE75E
:101A8800FF200003FE0000000010200000000000FE
:101A9800C0000000800000009C000000D83000005A
:101AA800FE200000FFF00001FFF3FC03FFFFC0076A
:101AB800FFFFFF0FFFFFFF1FFFFFFF3FFFFEFF3886
:101AC8007FE7FF200003FE000000000F081C1C1821
:101AD80018183C7E5A5A5A5A581818180A140FE0FF
:101AE800007FF0003FF800FFFFF007FFE003F7C0BA
:101AF80000F380007B0000380000080001000000AF
:101B0800000000020000000093070000000001161A
:101B180005500100000047414D45204F56455200F1
:0E1B28006D6F766520746F20737461727400A7
:00000001FF
